:100000000C9434000C943E000C943E000C943E0082
:100010000C943E000C943E000C943E000C943E0068
:100020000C943E000C943E000C943E000C943E0058
:100030000C943E000C943E000C943E000C943E0048
:100040000C943E000C943E000C943E000C943E0038
:100050000C943E000C943E000C943E000C943E0028
:100060000C943E000C943E0011241FBECFEFD8E04C
:10007000DEBFCDBF0E944E000C94AA000C9400007D
:10008000399A3A9A3B9A3C9A0895419A429A439AED
:10009000449A08950E9440000C9445000E944A0032
:1000A00018B82FEF89E698E1215080409040E1F7A1
:1000B00000C0000082E088B92FEF89E698E1215066
:1000C00080409040E1F700C0000086E088B92FEF43
:1000D00089E698E1215080409040E1F700C000009F
:1000E00084E088B92FEF89E698E121508040904064
:1000F000E1F700C000008CE088B92FEF89E698E1B5
:10010000215080409040E1F700C0000088E088B9AD
:100110002FEF89E698E1215080409040E1F700C040
:10012000000088E188B92FEF89E698E121508040EE
:100130009040E1F700C0000080E188B92FEF89E628
:1001400098E1215080409040E1F700C0000080E03D
:0801500090E00895F894FFCF40
:00000001FF
