:100000000C943D010C945C010C947B010C945A01FE
:100010000C945A010C945A010C945A010C945A01F4
:100020000C945A010C945A010C945A010C945A01E4
:100030000C945A010C945A010C945A010C945A01D4
:100040000C945A010C945A010C945A010C945A01C4
:100050000C945A010C945A010C945A010C945A01B4
:100060000C945A010C945A01000000000081811880
:1000700081810007000700147F147F14242A7F2A3F
:10008000122313086462364955225000050300000C
:10009000001C2241000041221C0014083E081408E4
:1000A000083E0808005030000008080808080060F2
:1000B00060000020100804023E5149453E00427F86
:1000C000400042615149462141454B311814127F8D
:1000D0001027454545393C4A494930017109050316
:1000E0003649494936064949291E0036360000007E
:1000F0005636000008142241001414141414004150
:100100002214080201510906324979413E7E11113B
:10011000117E7F494949363E414141227F4141227A
:100120001C7F494949417F090909013E4149497AF2
:100130007F0808087F00417F41002040413F017F48
:10014000081422417F404040407F020C027F7F0420
:1001500008107F3E4141413E7F090909063E415159
:10016000215E7F09192946464949493101017F012C
:10017000013F4040403F1F2040201F3F4038403F4C
:100180006314081463070870080761514945430068
:100190007F41410002040810200041417F00040219
:1001A0000102044040404040000102040020545439
:1001B00054787F48444438384444442038444448C0
:1001C0007F3854545418087E0901020C5252523E92
:1001D0007F0804047800447D40002040443D007FB7
:1001E0001028440000417F40007C041804787C08FB
:1001F00004047838444444387C1414140808141453
:10020000147C7C080404084854545420043F44409F
:10021000203C4040207C1C2040201C3C4030403C86
:1002200044281028440C5050503C4464544C440022
:100230000836410000007F00000041360800100829
:1002400008100800000000001200AE01A83F0120C5
:10025000000221007F02220007004001D30000A11C
:1002600000C801DA1201817F00A400A601D5800137
:10027000D9C201DB20018D1400AF11241FBECFEFC6
:10028000D8E0DEBFCDBF11E0A0E0B1E0E2E3F8E0EE
:1002900002C005900D92A631B107D9F725E0A6E17D
:1002A000B1E001C01D92A831B207E1F70E94CE0370
:1002B0000C9417040C9400001F920F920FB60F922B
:1002C00011248F934C9B08C080910001882369F012
:1002D00080910001815007C0809100018A3028F48C
:1002E000809100018F5F809300018F910F900FBE6E
:1002F0000F901F9018951F920F920FB60F92112416
:100300008F9385E0809300018F910F900FBE0F9027
:100310001F901895E1E0F1E088B19191807F892BE1
:1003200088B98FE99FE00197F1F700C0000091E0E4
:10033000E930F90789F7089588E0815080F098B195
:10034000907FE82FF0E0EF5FFE4F2081922B98B96D
:10035000EFE9FFE03197F1F700C00000EECF08951C
:10036000CF93DF93C0E0D2E00E948A012197E1F7AA
:10037000DF91CF910895CF93DF93C0E0D2E00E9448
:100380009C012197E1F7DF91CF91089588B1807F9B
:1003900088B90895389A399A3A9A3B9A0895409ABA
:1003A000419A429A439A08950E94CA010C94CF013F
:1003B00084E18093B800E9EBF0E080819081827065
:1003C0008160892B808308958091B900877580931F
:1003D000B90084EA8093BC008091BC0087FFFCCF09
:1003E0008091B900887F883049F08091B900887F7A
:1003F000803121F08091B900887F089580E00895D0
:10040000880F8093BB0084E88093BC008091BC007F
:1004100087FFFCCF8091B900887F883121F08091DF
:10042000B900887F089580E008958093BB0084E838
:100430008093BC008091BC0087FFFCCF8091B90005
:10044000887F883221F08091B900887F089580E00C
:100450000895880F990B81608093BB0084E8809396
:10046000BC008091BC0087FFFCCF8091B900887FE1
:10047000803421F08091B900887F089580E008954C
:1004800084E98093BC0008958AB1837E8AB98BB1D8
:100490008C618BB98DB383608DBBE9E6F0E0808120
:1004A0008F60808378940895CF93C82F0E94E401D1
:1004B000811104C08C2FCF910C940002CF9108952C
:1004C000CF93C82F80E80E941502811104C08C2FA1
:1004D000CF910C941502CF910895FF920F931F9323
:1004E000CF93DF93D82FE8E4F2E0C4910E94D801C3
:1004F0008D2F0E94540281111FC0D0E0E9E4F2E088
:100500002097B9F0F4908F010E5F1F4F31968491C0
:100510000E946002811110C0F801FF2041F0F80133
:1005200084910E946002FA940F5F1F4FF3CF2197CE
:10053000E7CF0E94400280E0DF91CF911F910F91A1
:10054000FF9008950E945402811103C086EA0C9422
:10055000600208950E945402811103C087EA0C943E
:1005600060020895CF93DF930E945402811113C05B
:1005700080E40E94150281110EC0C6E1D1E089918C
:100580000E941502811107C085E0C631D807B9F76E
:100590000E94400280E0DF91CF91089580E094E0D6
:1005A000E6E1F1E0DF019C011D9221503040E1F7CE
:1005B000089590E020E8629F800D911D1124909392
:1005C000170580931605089520911605309117059B
:1005D000C901880F892F881F990B91952A5F482F91
:1005E000479544274795241B27FF10C0883060F4A7
:1005F000863060F48F5F20E8829FC00111249093C1
:1006000017058093160502C081E0089580E00895E3
:10061000CF93C82F0E94E402813011F1209116057A
:1006200030911705D901AA5EBE4F45E0C402C00152
:10063000112440E050E0805A9109FC01E40FF51FBD
:10064000E859FF4FE491ED934F5F5F4F45305105FF
:10065000A1F72A5F3F4F309317052093160580E0DE
:10066000CF910895CF93DF93EC018991882319F0FE
:100670000E940803FACFDF91CF91089587FF02C04F
:10068000613420F5262F26952695269530E0F90130
:10069000F695FE2FEE27F795E795E80FF11DCF01B0
:1006A00001969093170580931605EA5EFE4F88E049
:1006B000289F6019112481E090E001C0880F6A959D
:1006C000EAF79081892B808380E0089581E0089586
:1006D0008F929F92AF92BF92CF92DF92EF92FF9252
:1006E0000F931F93CF93DF93082FA62E142FB22EB4
:1006F000262F30E0281B31098B2D90E0841B9109B7
:1007000037FF06C031952195310999249A9402C08A
:100710009924939497FF06C0919581959109882417
:100720008A9402C0882483947C01EE0CFF1C69012A
:10073000CC0CDD1C8217930794F4E701C21BD30B8A
:10074000612F802F0E943E030A15D1F0090DD7FDBD
:1007500003C0180DCC19DD09CE0DDF1DF1CFEC0162
:10076000CC19DD09612F802F0E943E031B1541F03B
:10077000180D1C161D06A4F3090DCE0DDF1DF0CFBC
:1007800080E0DF91CF911F910F91FF90EF90DF906C
:10079000CF90BF90AF909F908F900895C09100012F
:1007A0000E9444028CE30E946D020E94CE028CE300
:1007B0000E94B2020E94D40180910001C817E1F3A7
:1007C000F8948091000181110EC062E087E30E94DD
:1007D000D90289E091E00E9432038CE30E94B202C8
:1007E0000E94C6011EC08091000162E0C81768F433
:1007F00087E30E94D9028DE091E00E9432038CE3EE
:100800000E94B2020E94B0010CC087E30E94D9028C
:1008100081E191E00E9432038CE30E94B2020E94C7
:10082000BB010E94C601C09100017894C5CFF89425
:02083000FFCFF8
:100832000501030206040C08093D3D3D003D3D3E15
:06084200003C3D3D0000FA
:00000001FF
