:100000000C9434000C9449000C9449000C94490061
:100010000C9449000C9449000C9449000C9449003C
:100020000C9449000C9449000C9449000C9449002C
:100030000C9449000C9449000C9449000C9449001C
:100040000C9449000C9449000C9449000C9449000C
:100050000C9449000C9449000C9449000C944900FC
:100060000C9449000C94490011241FBECFEFD8E036
:10007000DEBFCDBF11E0A0E0B1E0E2E6F1E002C0FA
:1000800005900D92A830B107D9F70E9499000C9401
:10009000AF000C940000E0E0F1E088B19191807F26
:1000A000892B88B98FE99FE00197F1F700C0000024
:1000B00091E0E830F90789F7089588E0815080F0F1
:1000C00098B1907FE82FF0E0E050FF4F2081922B15
:1000D00098B9EFE9FFE03197F1F700C00000EECFEB
:1000E0000895CF93DF93C0E0D2E00E944B002197A8
:1000F000E1F7DF91CF910895CF93DF93C0E0D2E095
:100100000E945D002197E1F7DF91CF91089588B1BA
:10011000807F88B90895389A399A3A9A3B9A089517
:10012000409A419A429A439A08950E948B000C94F7
:1001300090000E9495000E9471000E9487002FEF9E
:1001400089E698E1215080409040E1F700C000002E
:100150000E947C000E94870080E090E00895F8945F
:02016000FFCFCF
:0801620001030206040C080968
:00000001FF
