:100000000C943D010C945C010C947B010C945A01FE
:100010000C945A010C945A010C945A010C945A01F4
:100020000C945A010C945A010C945A010C945A01E4
:100030000C945A010C945A010C945A010C945A01D4
:100040000C945A010C945A010C945A010C945A01C4
:100050000C945A010C945A010C945A010C945A01B4
:100060000C945A010C945A01000000000081811880
:1000700081810007000700147F147F14242A7F2A3F
:10008000122313086462364955225000050300000C
:10009000001C2241000041221C0014083E081408E4
:1000A000083E0808005030000008080808080060F2
:1000B00060000020100804023E5149453E00427F86
:1000C000400042615149462141454B311814127F8D
:1000D0001027454545393C4A494930017109050316
:1000E0003649494936064949291E0036360000007E
:1000F0005636000008142241001414141414004150
:100100002214080201510906324979413E7E11113B
:10011000117E7F494949363E414141227F4141227A
:100120001C7F494949417F090909013E4149497AF2
:100130007F0808087F00417F41002040413F017F48
:10014000081422417F404040407F020C027F7F0420
:1001500008107F3E4141413E7F090909063E415159
:10016000215E7F09192946464949493101017F012C
:10017000013F4040403F1F2040201F3F4038403F4C
:100180006314081463070870080761514945430068
:100190007F41410002040810200041417F00040219
:1001A0000102044040404040000102040020545439
:1001B00054787F48444438384444442038444448C0
:1001C0007F3854545418087E0901020C5252523E92
:1001D0007F0804047800447D40002040443D007FB7
:1001E0001028440000417F40007C041804787C08FB
:1001F00004047838444444387C1414140808141453
:10020000147C7C080404084854545420043F44409F
:10021000203C4040207C1C2040201C3C4030403C86
:1002200044281028440C5050503C4464544C440022
:100230000836410000007F00000041360800100829
:1002400008100800000000001200AE01A83F0120C5
:10025000000221007F02220007004001D30000A11C
:1002600000C801DA1201817F00A400A601D5800137
:10027000D9C201DB20018D1400AF11241FBECFEFC6
:10028000D8E0DEBFCDBF11E0A0E0B1E0E8E8FEE0DD
:1002900002C005900D92A831B107D9F725E0A8E179
:1002A000B1E001C01D92AA31B207E1F70E94CB0371
:1002B0000C9442070C9400001F920F920FB60F92FD
:1002C00011248F934C9B08C080910001882369F012
:1002D00080910001815007C0809100018A3028F48C
:1002E000809100018F5F809300018F910F900FBE6E
:1002F0000F901F9018951F920F920FB60F92112416
:10030000109200010F900FBE0F901F901895E1E022
:10031000F1E088B19191807F892B88B98FE99FE0C6
:100320000197F1F700C0000091E0E930F90789F783
:10033000089588E0815080F098B1907FE82FF0E038
:10034000EF5FFE4F2081922B98B9EFE9FFE03197E4
:10035000F1F700C00000EECF0895CF93DF93C0E027
:10036000D2E00E9487012197E1F7DF91CF910895B4
:10037000CF93DF93C0E0D2E00E9499012197E1F78B
:10038000DF91CF91089588B1807F88B90895389A18
:10039000399A3A9A3B9A0895409A419A429A439AD6
:1003A00008950E94C7010C94CC0184E18093B800A9
:1003B000E9EBF0E08081908182708160892B8083FD
:1003C00008958091B90087758093B90084EA80937D
:1003D000BC008091BC0087FFFCCF8091B900887F72
:1003E000883049F08091B900887F803121F0809178
:1003F000B900887F089580E00895880F8093BB003E
:1004000084E88093BC008091BC0087FFFCCF809182
:10041000B900887F883121F08091B900887F0895E4
:1004200080E008958093BB0084E88093BC008091B5
:10043000BC0087FFFCCF8091B900887F883221F013
:100440008091B900887F089580E00895880F990B06
:1004500081608093BB0084E88093BC008091BC00E5
:1004600087FFFCCF8091B900887F803421F0809194
:10047000B900887F089580E0089584E98093BC00E6
:1004800008958AB1837E8AB98BB18C618BB98DB3A3
:1004900083608DBBE9E6F0E080818F608083789493
:1004A0000895CF93C82F0E94E101811104C08C2FC1
:1004B000CF910C94FD01CF910895CF93C82F80E880
:1004C0000E941202811104C08C2FCF910C94120251
:1004D000CF910895FF920F931F93CF93DF93D82F5F
:1004E000E8E4F2E0C4910E94D5018D2F0E945102F0
:1004F00081111FC0D0E0E9E4F2E02097B9F0F49058
:100500008F010E5F1F4F319684910E945D02811111
:1005100010C0F801FF2041F0F80184910E945D02B3
:10052000FA940F5F1F4FF3CF2197E7CF0E943D0250
:1005300080E0DF91CF911F910F91FF9008950E946D
:100540005102811103C086EA0C945D0208950E9455
:100550005102811103C087EA0C945D020895CF9384
:10056000DF930E945102811113C080E40E941202A5
:1005700081110EC0C8E1D1E089910E94120281115F
:1005800007C085E0C831D807B9F70E943D0280E076
:10059000DF91CF91089580E094E0E8E1F1E0DF01A0
:1005A0009C011D9221503040E1F7089590E020E831
:1005B000629F800D911D1124909319058093180559
:1005C00008952091180530911905C901880F892FC8
:1005D000881F990B91952A5F482F47954427479587
:1005E000241B27FF10C0883060F4863060F48F5FD2
:1005F00020E8829FC001112490931905809318056B
:1006000002C081E0089580E00895CF93C82F0E9432
:10061000E102813011F12091180530911905D901BD
:10062000A85EBE4F45E0C402C001112440E050E086
:10063000805A9109FC01E40FF51FE859FF4FE4913E
:10064000ED934F5F5F4F45305105A1F72A5F3F4F54
:10065000309319052093180580E0CF910895CF932A
:10066000DF93EC018991882319F00E940503FACFEA
:10067000DF91CF91089587FF02C0613420F5262FC6
:1006800026952695269530E0F901F695FE2FEE2762
:10069000F795E795E80FF11DCF01019690931905A5
:1006A00080931805E85EFE4F88E0289F60191124AA
:1006B00081E090E001C0880F6A95EAF79081892B6C
:1006C000808380E0089581E008958F929F92AF9299
:1006D000BF92CF92DF92EF92FF920F931F93CF932F
:1006E000DF93082FA62E142FB22E262F30E0281BC2
:1006F00031098B2D90E0841B910937FF06C031959D
:100700002195310999249A9402C09924939497FFD2
:1007100006C091958195910988248A9402C0882405
:1007200083947C01EE0CFF1C6901CC0CDD1C82174C
:10073000930794F4E701C21BD30B612F802F0E9413
:100740003B030A15D1F0090DD7FD03C0180DCC19D4
:10075000DD09CE0DDF1DF1CFEC01CC19DD09612FD4
:10076000802F0E943B031B1541F0180D1C161D061F
:10077000A4F3090DCE0DDF1DF0CF80E0DF91CF9106
:100780001F910F91FF90EF90DF90CF90BF90AF90AF
:100790009F908F900895CF93DF9300D0CDB7DEB7B1
:1007A000D09000010E9441028CE30E946A020E94E4
:1007B000CB028CE30E94AF020E94D1018E010F5F39
:1007C0001F4F89E0E82E81E0F82E80910001D816B5
:1007D000E1F3F8948091000181111FC08091000124
:1007E0001F928F93FF92EF921F930F930E945804D2
:1007F00062E087E30E94D6028CE091E00E942F0322
:1008000061E08DE30E94D602C8010E942F038CE3B1
:100810000E94AF020E94C30141C080910001D8161E
:10082000F8F4809100011F928F93FF92EF921F9333
:100830000F930E94580462E087E30E94D60280E191
:1008400091E00E942F0361E08DE30E94D602C8016F
:100850000E942F038CE30E94AF020E94AD011EC0D4
:10086000809100011F928F93FF92EF921F930F933D
:100870000E94580462E087E30E94D60284E191E07E
:100880000E942F0361E08DE30E94D602C8010E94FE
:100890002F038CE30E94AF020E94B8010F900F90CB
:1008A0000F900F900F900F90D090000178948DCF03
:1008B000AEE0B0E0EEE5F4E00C9419070D891E8976
:1008C00086E08C831A8309838FEF9FE79E838D8355
:1008D000AE01475E5F4F6F89788DCE0101960E9411
:1008E0007A04EF81F885E00FF11F10822E96E4E084
:1008F0000C943507ABE0B0E0E0E8F4E00C940B07B3
:100900006C017B018A01FC0117821682838181FFC1
:10091000CCC1CE0101963C01F6019381F70193FD14
:10092000859193FF81917F01882309F4BAC18532B3
:1009300039F493FD859193FF81917F01853229F4EC
:10094000B60190E00E947106E7CF912C212C312C4A
:10095000FFE1F315D8F08B3279F038F4803279F07A
:100960008332A1F4232D20611DC08D3261F08033CC
:1009700069F4232D216016C0832D8260382EE32D6B
:10098000E4603E2E2AC0F32DF8601DC037FC2DC058
:1009900020ED280F2A3040F08E32B9F436FC81C1A8
:1009A000232D2064322E19C036FE06C08AE0989EA0
:1009B000200D1124922E11C0EAE02E9E200D11244C
:1009C000222EF32DF0623F2E08C08C3621F4832DA9
:1009D0008068382E02C0883641F4F70193FD859176
:1009E00093FF81917F018111B3CF982F9F7D955403
:1009F000933028F40C5F1F4F9FE399830DC083361B
:100A000031F0833771F0833509F059C021C0F80106
:100A1000808189830E5F1F4F88248394912C53011A
:100A200013C02801F2E04F0E511CF801A080B180E4
:100A300036FE03C0692D70E002C06FEF7FEFC50185
:100A40000E9466064C018201F32DFF773F2E16C0EF
:100A5000280122E0420E511CF801A080B18036FE30
:100A600003C0692D70E002C06FEF7FEFC5010E94E7
:100A70005B064C01F32DF0683F2E820133FC1BC056
:100A8000822D90E088169906B0F4B60180E290E0DD
:100A90000E9471062A94F4CFF50137FC859137FE48
:100AA00081915F01B60190E00E94710621102A94A5
:100AB00021E0821A91088114910471F7E8C084360C
:100AC00011F0893641F5F80137FE07C06081718168
:100AD000828193810C5F1F4F08C060817181072E56
:100AE000000C880B990B0E5F1F4FF32DFF763F2EE6
:100AF00097FF09C090958095709561957F4F8F4FB6
:100B00009F4FF0683F2E2AE030E0A3010E94AD061F
:100B1000882E861845C0853731F4232D2F7EB22EBE
:100B20002AE030E025C0932D997FB92E8F36C1F091
:100B300018F4883579F0B5C0803719F0883721F07E
:100B4000B0C0E92FE061BE2EB4FE0DC0FB2DF460F5
:100B5000BF2E09C034FE0AC0292F2660B22E06C05F
:100B600028E030E005C020E130E002C020E132E0C2
:100B7000F801B7FE07C060817181828193810C5FAB
:100B80001F4F06C06081718180E090E00E5F1F4FB3
:100B9000A3010E94AD06882E8618FB2DFF773F2EFD
:100BA00036FE0DC0232D2E7FA22E891458F434FE5C
:100BB0000BC032FC09C0832D8E7EA82E05C0B82C38
:100BC000A32C03C0B82C01C0B92CA4FE0FC0FE0199
:100BD000E80DF11D8081803321F49A2D997EA92E94
:100BE00009C0A2FE06C0B394B39404C08A2D8678CF
:100BF00009F0B394A3FC11C0A0FE06C0B21488F49F
:100C0000280C922C9B180EC0B21460F4B60180E23E
:100C100090E00E947106B394F7CFB21418F42B1829
:100C200002C0982C212CA4FE10C0B60180E390E0F5
:100C30000E947106A2FE17C0A1FC03C088E790E0E5
:100C400002C088E590E0B6010CC08A2D867859F084
:100C5000A1FE02C08BE201C080E2A7FC8DE2B601DA
:100C600090E00E947106891438F4B60180E390E0A8
:100C70000E9471069A94F7CF8A94F301E80DF11D52
:100C80008081B60190E00E9471068110F5CF22208C
:100C900009F442CEB60180E290E00E9471062A94E7
:100CA000F6CFF6018681978102C08FEF9FEF2B96DA
:100CB000E2E10C942707FC0105906150704001109F
:100CC000D8F7809590958E0F9F1F0895FC01615075
:100CD000704001900110D8F7809590958E0F9F1F5E
:100CE00008950F931F93CF93DF93FB01238121FD81
:100CF00003C08FEF9FEF2CC022FF16C046815781A3
:100D0000248135814217530744F4A081B1819D01AC
:100D10002F5F3F4F318320838C93268137812F5F54
:100D20003F4F3783268314C08B01EC01FB01008405
:100D3000F185E02D0995892BE1F6D80116968D9164
:100D40009C911797019617969C938E931697CE01B8
:100D5000DF91CF911F910F910895FA01AA272830B2
:100D600051F1203181F1E8946F936E7F6E5F7F4F78
:100D70008F4F9F4FAF4FB1E03ED0B4E03CD0670FF4
:100D8000781F891F9A1FA11D680F791F8A1F911D47
:100D9000A11D6A0F711D811D911DA11D20D009F497
:100DA00068943F912AE0269F11243019305D3193D9
:100DB000DEF6CF010895462F4770405D4193B3E0C2
:100DC0000FD0C9F7F6CF462F4F70405D4A3318F069
:100DD000495D31FD4052419302D0A9F7EACFB4E01A
:100DE000A6959795879577956795BA95C9F70097D2
:100DF0006105710508959B01AC010A2E0694579573
:100E0000479537952795BA95C9F7620F731F841FC9
:100E1000951FA01D08952F923F924F925F926F925F
:100E20007F928F929F92AF92BF92CF92DF92EF927A
:100E3000FF920F931F93CF93DF93CDB7DEB7CA1BFB
:100E4000DB0B0FB6F894DEBF0FBECDBF09942A8826
:100E5000398848885F846E847D848C849B84AA84CE
:100E6000B984C884DF80EE80FD800C811B81AA815B
:100E7000B981CE0FD11D0FB6F894DEBF0FBECDBF26
:080E8000ED010895F894FFCF85
:100E88000501030206040C08092564003D3D3D00E8
:080E98003D3D3E003C3D3D00E4
:00000001FF
